:020000040800F2
:1000000098120020A5710008611800086318000804
:10001000671800086B1800086F180008000000003F
:10002000000000000000000000000000731800083D
:1000300075180008000000007718000879180008FB
:10004000BF710008BF710008BF710008BF710008D0
:10005000BF710008BF710008BF710008BF710008C0
:10006000BF710008BF710008BF710008BF710008B0
:10007000BF710008BF710008BF710008BF710008A0
:10008000BF710008BF710008BF710008BF71000890
:10009000BF710008BF710008BF710008C95F000888
:1000A000BF710008BF710008BF710008BF71000870
:1000B000BF710008BF710008BF710008BF71000860
:1000C000BF710008BF710008BF710008BF71000850
:1000D000BF7100081B710008BF710008BF710008E4
:1000E000BF710008BF710008BF710008BF71000830
:1000F000BF710008BF710008BF710008BF71000820
:10010000BF710008BF710008BF710008BF7100080F
:10011000BF710008BF710008BF710008BF710008FF
:10012000BF710008BF710008BF710008BF710008EF
:10013000BF710008BF710008BF710008BF710008DF
:10014000BF710008BF710008BF710008BF710008CF
:10015000BF710008BF710008BF710008BF710008BF
:10016000BF710008BF710008BF710008BF710008AF
:10017000BF710008BF710008BF710008BF7100089F
:10018000BF710008BF710008DFF80CD009F0F2F869
:1001900000480047B5160008981200201CB54FF41F
:1001A0007840FC490880FCA010210B46C822CDE90C
:1001B00000103221642005F004FDFCA010210B4644
:1001C000C822CDE900106421084605F0FAFCFDA024
:1001D00010210B46C822CDE900109621642005F0BD
:1001E000F0FCFEA010210B46C822CDE900101146FC
:1001F000642005F0E6FC1CBD2DE9F04F2DED108BC1
:1002000093B0B0EE408A9FEDFC0A8DED120A18EE15
:10021000100A08F05DFF41EC1D0B9FEDF80B53EC4D
:10022000102B08F005FE41EC1C0BB0EE4C0AF0EE72
:100230006C0A09F02DFBB0EE40BAF0EE60BA9FED0B
:10024000F10B53EC102B51EC1B0B08F0F1FD41ECC2
:100250001A0B9FEDEE0B53EC102B08F0E6FD41EC72
:10026000190B08F079FF82469FEDEA0A10EE10BAEA
:10027000002008EE900A81468BE1002484E10025ED
:100280007EE1002678E1002772E14FF000086AE184
:10029000584608F01DFF41EC190B504608F018FFB6
:1002A00041EC1C0B00EE108AB8EEC00AF6EE000A14
:1002B00020EE200A10EE101A084608F009FF41EC63
:1002C0001E0B00EE107AB8EEC00AF7EE000A20EE20
:1002D000200A10EE101A084608F0FAFE00EE106A26
:1002E000B8EEC00AF0EE000A20EE200ACDE91001B7
:1002F00010EE101A084608F0EBFE00EE105AB8EEA9
:10030000C00AF1EE000A20EE200ACDE90C0110EE41
:10031000101A084608F0DCFE00EE104AB8EEC00ADB
:10032000F2EE000A20EE200ACDE9080110EE101AC4
:10033000084608F0CDFECDE90401484608F059FE14
:100340009FEDB50B53EC102BCDE900019DED000B9B
:1003500051EC100B08F06CFDCDE902019DED040B92
:1003600053EC102B9DED020B51EC100B08F0B9FC77
:10037000CDE906019DED080B53EC102B9DED060B0E
:1003800051EC100B08F0ADFCCDE90A019DED0C0B12
:1003900053EC102B9DED0A0B51EC100B08F0A1FC57
:1003A000CDE90E019DED100B53EC102B9DED0E0BC6
:1003B00051EC100B08F095FC41EC1F0B53EC1E2B7D
:1003C00008F08FFC41EC1D0B53EC1C2B08F02AFDB0
:1003D00041EC1B0BB0EE4B0AF0EE6B0A09F06AF829
:1003E000B0EE40AAF0EE60AA53EC192B51EC1A0BB8
:1003F00008F082FE7DD2504608F06AFE00EE108AB8
:10040000B8EEC00AF6EE000A20EE200ACDE910018F
:1004100010EE101A084608F05BFE00EE107AB8EEF7
:10042000C00AF7EE000A20EE200ACDE90E0110EE18
:10043000101A084608F04CFE00EE106AB8EEC00A2A
:10044000F0EE000A20EE200ACDE90A0110EE101AA3
:10045000084608F03DFE00EE105AB8EEC00AF1EE74
:10046000000A20EE200ACDE9080110EE101A084615
:1004700008F02EFE00EE104AB8EEC00AF2EE000AB6
:1004800020EE200ACDE9060110EE101A084608F009
:100490001FFE41EC1F0B484608F0ABFD9FED5E0BC5
:1004A00053EC102BCDE902019DED020B51EC100B2A
:1004B00008F0BEFC53EC1F2BCDE904019DED040BAD
:1004C00051EC100B08F00DFC41EC1E0B9DED060BE2
:1004D00053EC102B08F005FC41EC1D0B9DED080BB7
:1004E00053EC102B08F0FDFB41EC1C0B9DED0A0BAF
:1004F00000E036E053EC102B08F0F3FBCDE90C01E3
:100500009DED0E0B53EC102B9DED0C0B51EC100BD5
:1005100008F0E7FB41EC1B0B9DED100B53EC102B8F
:1005200008F080FC41EC1A0BB0EE4A0AF0EE6A0AC1
:1005300008F0C0FFB0EE409AF0EE609A51EC190B53
:1005400008F00AFE83464FEA491000EB041000EB66
:10055000C50000EB860000EB47004044C0B208EE47
:10056000900A08F10108B8F1020FFFF691AE7F1C66
:10057000022FFFF68AAE761C022EFFF684AE6D1CAB
:10058000022DFFF67EAE641C022CFFF678AE09F158
:10059000010945E04600002053696E676C65204FF5
:1005A000757470757428312900000000436F6E74F3
:1005B000696E756F7573204F757470757428322964
:1005C00000000000537065637472756D20416E61A8
:1005D0006C797A65722833290000000053706563D6
:1005E0007472756D20416E616C797A657228414D27
:1005F00029283429000000006666E6BF00000000DC
:100600000000E03F0000000000003440000000A0B7
:10061000999927C000007A44000000000000304093
:10062000B9F1020FFFF629AEB8EE680A13B0BDECBF
:10063000108BBDE8F08F10B502464FF0FF30FC4B39
:100640001860FC4B1860FC4B1860FFEE001AF0EECF
:10065000610AFFEE001AB0EE610AFFEE001AB0EE7A
:10066000611A002059E002EB8003D3ED001AF4EE8A
:10067000E01AF1EE10FA14DDB0EE401AB0EE600AA6
:1006800002EB8003D3ED001AF0EE610AE94B1B6820
:10069000E94C2360E64B1B68E64C2360E44B186092
:1006A0003AE002EB8003D3ED001AF4EEC01AF1EE4B
:1006B00010FA17DD02EB8003D3ED001AF4EEE01A16
:1006C000F1EE10FA0ED2B0EE401A02EB8003D3ED39
:1006D000001AB0EE610AD74B1B68D74C2360D54B8C
:1006E000186019E002EB8003D3ED001AF4EEC11A92
:1006F000F1EE10FA10DD02EB8003D3ED001AF4EEF8
:10070000C01AF1EE10FA07D2CB4B186002EB80034F
:10071000D3ED001AB0EE611A401C8842A3DB10BD75
:100720000020C6490860C648C149096800EB81003D
:10073000D0ED000A9FEDC31A60EE810AB0EE600AA8
:1007400000201FE0BE4901EB8001D1ED000AF4EE6C
:10075000C00AF1EE10FA14DDB5490968884210D0DC
:10076000B449096888420CD0B3490968884208D066
:10077000B2490A680968491CB04B1960B24941F88E
:100780002200401CC928DDDB704710B52DED088B19
:10079000B0EE408AB2EE040A38EE400AF3EE040AE4
:1007A00080EE201A11EE104A204608F091FC41EC30
:1007B0001B0BB0EE4B1AF0EE6B1A9FEDA40B09F079
:1007C000FFF8B0EE40AAF0EE60AA9FEDA20B53EC4A
:1007D000102B51EC1A0B08F02BFB41EC190B08F015
:1007E000BBFC08EE900AB0EE680ABDEC088B10BDA9
:1007F000F0EE400A9FED991ADFED991A11EEA01A5A
:10080000DFED981A31EE211AB0EE410A704770B54B
:100810002DED068B84B000254FF478409249088076
:100820004FF6FF7091490880B6E0002001F06CF9A6
:100830000446042C0CD100208D4908704FF6FF703F
:1008400002F0E6F8FFF7AAFC04B0BDEC068B70BD21
:100850007DB94FF6FF7002F0DBF886A01821322335
:100860004FF49672CDE900101421502005F0A9F93B
:100870000125012D4DD16421502005F0BCFEB0EEC4
:10088000408AF0EE608A51EC180B08F065FC7C4958
:1008900008607CA0182132234FF49672CDE9001035
:1008A0006421C82005F08DF9754890ED000ADFED50
:1008B000760AB4EEE00AF1EE10FA0DDD90ED000AD2
:1008C000DFED720AB4EEE00AF1EE10FA04D270A085
:1008D00008F0B4FD02251CE0694890ED000AB5EE71
:1008E000C00AF1EE10FA14D06CA00C2132234FF4A0
:1008F0009672CDE9001019460A2005F062F99FEDC5
:10090000590A5F4880ED000A4FF4FA7006F086FB42
:100910000025022D40D1C821502005F06CFEB0EE1C
:10092000408AF0EE608A51EC180B08F015FC5F4924
:1009300008605FA0182132234FF49672CDE90010B1
:10094000C821084605F03DF9584890ED000AF2EE3E
:10095000020AB4EEE00AF1EE10FA0CDD90ED000AA6
:10096000DFED550AB4EEE00AF1EE10FA03D253A01F
:1009700008F064FD11E04D4890ED000AB5EEC00AA4
:10098000F1EE10FA08D09FED370A80ED000A4FF41F
:10099000FA7006F043FB022547E700BFB8E00020ED
:1009A00001F0B2F80446012C41D13548006808F046
:1009B0008FFB41EC180BB0EE480AF0EE680A01F02C
:1009C00070FA3A48006808F083FB41EC1A0B9FED7F
:1009D0003E0B53EC102B08F02BFA41EC190B08F0EE
:1009E000BBFB08EE100AB0EE480AFFF705FCBCEEB0
:1009F000C00A10EE100AC6B2642006F00FFB3046A3
:100A000006F01CFA2948006808F062FB41EC180B5C
:100A10001B48006808F05CFB41EC190B02968DED59
:100A2000008B53EC192B2AA008F008FD70E063E05E
:100A30001C000020200000202400002028000020AE
:100A4000C00300200AD7A33C080A002000000000D1
:100A50000000244000000000000000409A99F94284
:100A600000001F4200000000460000204800002057
:100A70000200002053494E474C454F55540000009A
:100A8000040000204D487A000000B2420000DE421F
:100A900056616C696420667265710A0072657365DF
:100AA00074206672657120706C730000080000206D
:100AB0006D567070000000000000CA4256616C69FB
:100AC00064205670700A0000FCA9F1D24D62503FBC
:100AD0004672657175656E63793A20256C662C20C7
:100AE0006D5670703A256C662C64656361795F643D
:100AF000623A2025750A0000042C09D10020FE4925
:100B000008704FF6FF7001F083FFFFF747FB9BE68D
:100B100045E72DE9F0412DED088B82B000264FF41A
:100B20007840F64908804FF6FF70F5490880B9E033
:100B3000002000F0E9FF0446042C0DD10020EE490E
:100B400008704FF6FF7001F063FFFFF727FB02B05C
:100B5000BDEC088BBDE8F0817EB94FF6FF7001F067
:100B600057FFE8A0182132234FF49672CDE9001008
:100B70001421502005F025F80126012E4FD16421C3
:100B8000502005F038FDB0EE408AF0EE608A51EC5E
:100B9000180B08F0E1FADF490860AFF2EC00182109
:100BA00032234FF49672CDE900106421C82005F07D
:100BB00008F8D84890ED000AF2EE020AB4EEE00A16
:100BC000F1EE10FA0EDD90ED000A5FED450AB4EE8D
:100BD000E00AF1EE10FA05D2AFF2201008F02EFC78
:100BE00002261CE0CB4890ED000AB5EEC00AF1EEFB
:100BF00010FA14D0C8A00C2132234FF49672CDE91C
:100C0000001019460A2004F0DCFF1FED6A0AC148F3
:100C100080ED000A4FF4FA7006F000FA0026022E6A
:100C200040D1C821502005F0E6FCB0EE408AF0EE3D
:100C3000608A51EC180B08F08FFABB490860B9A024
:100C4000182132234FF49672CDE90010C8210846CE
:100C500004F0B7FFB44890ED000AF2EE020AB4EED9
:100C6000E00AF1EE10FA0CDD90ED000AF3EE0F0A47
:100C7000B4EEE00AF1EE10FA03D2ACA008F0DEFB0D
:100C800011E0A94890ED000AB5EEC00AF1EE10FAA5
:100C900008D01FED8C0A80ED000A4FF4FA7006F0C0
:100CA000BDF9022644E700BF90E0002000F02CFFD1
:100CB0000446012C7ED19C4890ED000ADFEDA00A8D
:100CC00080EE201AB0EE418A9EA008F0B7FB96484D
:100CD000006808F0FDF941EC190B53EC192BA0A0AA
:100CE00008F0ACFB8B48006808F0F2F941EC1A0BF5
:100CF0001FED8B0B53EC102B08F09AF841EC190BFD
:100D000008F02AFA08EE900AB0EE680AFFF774FAC3
:100D1000BCEEC00A10EE100A00F0FF08404606F0D4
:100D20008DF800253EE0284608F063F941EC1B0BE6
:100D30009FED8F0B53EC102B08F07AF841EC1A0B57
:100D40009FED8D0B53EC102B07F0CBFF41EC190BF3
:100D500008F002FA0746142095FBF0F100FB115051
:100D600048B9384608F0B4F941EC190B53EC192B8B
:100D700083A008F063FB384608F0AAF941EC190B90
:100D8000B0EE490AF0EE690A01F08BF89FED810A96
:100D900028EE000ABCEEC00A10EE101A88B206F067
:100DA0003DF96D1CC82DBEDD00E003E07AA008F01F
:100DB00045FB0BE0042C09D100204F4908704FF689
:100DC000FF7001F025FEFFF7E9F9C0E66DE770B5A9
:100DD0002DED0A8B8AB005467748006808F009F9BE
:100DE00041EC1B0B1FEDC80B53EC102B08F020F847
:100DF00041EC1A0B08F0B0F908EE100A6F4890EDBC
:100E0000000ADFED6F0A30EE200AF0EE408A14216E
:100E100005A807F05BFF00264FF6FF7001F0F8FD14
:100E20000020364908800023CD22C821052004F087
:100E30002FFF002006F002F85F4800680A280AD158
:100E400060A00C2132236422CDE900100A21D220B7
:100E500004F0B7FE09E05EA00C2132236422CDE944
:100E600000100A21D22004F0ACFE00244DE15348CA
:100E700090ED000ADFED520A70EE200A00EE104AF3
:100E8000B8EEC00A40EE080AF0EE608A18EE900A4A
:100E900008F01EF941EC1A0BB0EE4A0AF0EE6A0AAD
:100EA00000F0FFFF282006F0B9F81421042005F017
:100EB0002EFF00EE100AB8EE400AF0EE409A9FEDC9
:100EC000470A29EE800ADFED460A80EE201A4548DF
:100ED00000EB840080ED001A424800EB8400D0ED66
:100EE000000AB0EE600AFFF783FC3F4800EB840085
:100EF00080ED000A7AE00000020000204600002099
:100F000048000020434F4E54494E554F5553204FF3
:100F100055540000080000207265736574207670D7
:100F20007020706C730000000C00002056616C692A
:100F300064205363616E2054696D650A00000000EF
:100F400000004843537461727420636F6E74696E5D
:100F5000756F7573206F75747075742E0A000000BC
:100F60005363616E2074696D653A25660A0000005E
:100F70009A9999999999B93F0000000000805640CC
:100F80004375725F6672657175656E63793A256641
:100F90000A00000000007A4446696E69736865645F
:100FA00020636F6E74696E756F7573206F757470E2
:100FB00075742E0A000000001800002014000020A4
:100FC00033332B41537465703A2031304B000000AD
:100FD000537465703A203130304B00003333534046
:100FE000000080459C000020E406002018EE900AD6
:100FF00008F06EF841EC1A0BFD4800EB840090ED10
:10100000000A10EE101A084608F062F841EC1B0BBB
:10101000F84800EB840090ED000A10EE101A084624
:1010200008F056F841EC1C0B8DED02AB8DED00BBCA
:1010300053EC1C2BF0A008F001FAED4800EB840003
:10104000D0ED000AB0EE600AFFF79FFBF24800EB1C
:10105000840080ED000AE64800EB840090ED000A71
:10106000DFEDEE0A30EE200A5FED4B0A20EE200A9B
:10107000DFEDEB0A80EE201ABDEEC10A10EE106A19
:10108000C6F1C8018BB2611D8AB288B2C82104F0D2
:1010900051F918EE900A08F01BF841EC1A0B53ECCA
:1010A0001A2BE0A105A808F0D9F905A80C213223D4
:1010B0006422CDE900101E21D22004F082FD2820F8
:1010C00094FBF0F100FB1140F0B9D9A008F0B6F99B
:1010D0001FED450A38EEC00A10EE101A084607F058
:1010E000F7FF41EC1A0B53EC1A2BD5A105A808F019
:1010F000B5F905A80C21CDE90010611D88B20F23B8
:101100006422CA2104F05DFD641CC92CFFF6AFAE59
:10111000D321B848FFF78FFA9FEDCB9ACB480068F0
:10112000401EBD4901EB800090ED000AC7480068F1
:10113000401C01EB8000D0ED000A30EE200A08468A
:10114000C249096800EB8100D0ED000A80EE201A48
:10115000BF4880ED001A4FF47840BE490880A4488B
:10116000BA49096800EB810090ED000ADFEDBA0A88
:1011700030EE200A5FED8E0A20EE200ADFEDB70A7E
:1011800080EE201ABDEEC10A10EE106AAF4B1B882C
:101190005B1D9AB2C6F1C80399B2AC4B1B885B1DAC
:1011A00098B2C82304F0C6F89148AD49096800EB2D
:1011B000810090ED000ADFEDA80A30EE200A5FED15
:1011C000A00A20EE200ADFEDA50A80EE201ABDEE6F
:1011D000C10A10EE106AA24B1B885B1D9AB2C6F1C1
:1011E000C80399B29E4B1B885B1D98B2C82304F0BC
:1011F000A1F87F489B49096800EB810090ED000A47
:10120000DFED950A30EE200A5FEDB30A20EE200AEA
:10121000DFED920A80EE201ABDEEC10A10EE106AD0
:10122000904B1B885B1D9AB2C6F1C80399B28D4BD7
:101230001B885B1D98B2C82304F07CF80020854908
:10124000088055B188A00C2132236422CDE900101A
:101250001946DC2004F0B5FC09E085A00C213223FE
:101260006422CDE900101946D22004F0AAFC784887
:10127000006807F02DFF41EC1A0B53EC1A2B7FA1ED
:1012800005A808F0EBF84DB105A80C213223642223
:10129000CDE900105021D22004F093FC7A4890ED63
:1012A000000A6A48D0ED000AF8EEE00A00EE880A6B
:1012B000B0EE409A4E48654A126800EB820090ED0D
:1012C000000A10EE101A084607F002FF41EC1A0B54
:1012D00019EE100A07F0FCFE41EC1B0B8DED00AB84
:1012E00053EC1B2B69A105A808F0B8F805A80C2140
:1012F00032236422CDE900107821D22004F061FC71
:10130000614890ED000A5648D0ED000AF8EEE00A78
:1013100000EE880AB0EE409A3548514A126800EB58
:10132000820090ED000A10EE101A084607F0D0FE79
:1013300041EC1A0B19EE100A07F0CAFE41EC1B0B28
:101340008DED00AB53EC1B2B55A105A808F086F8DA
:1013500005A80C2132236422CDE900109621D22069
:1013600004F02FFC484890ED000A3E48D0ED000AFA
:10137000F8EEE00A00EE880AB0EE409A1C48394ABE
:10138000126800EB820090ED000A10EE101A084679
:1013900007F09EFE41EC1A0B19EE100A07F098FEBA
:1013A00041EC1B0B8DED00AB53EC1B2B42A105A8B0
:1013B00008F054F805A80C2132236422CDE900106E
:1013C000B421D22004F0FDFB85B113481F4A1268F6
:1013D00000EB820090ED000A10EE101A084607F0AC
:1013E00077FE41EC1A0B53EC1A2B71E09BE00000E6
:1013F000E40600209C000020616463783A20252EDA
:1014000034662C2064626D3A252E32662C2061747D
:1014100020252E32660A0000C00300200000F042A2
:101420000000BE424144463A20252E3266000000AC
:1014300052756E20696E20617869730A00000000A1
:10144000252E326600000000000000001C00002075
:101450002C000020460000200000D2420000A042E4
:101460002000002024000020414D2D57415645000A
:1014700053494E474C452D57415645004D413A2062
:10148000252E326600000000140000206D617820D7
:10149000617420252E32662C252E316664426D0043
:1014A0006D61783220617420252E32662C252E3114
:1014B0006664426D000000006D6178332061742025
:1014C000252E32662C252E316664426D0000000008
:1014D000B9A007F0B3FFBB480068401EBA4A02EB50
:1014E000800090ED000A10EE101A084607F0F0FD9B
:1014F00041EC1A0B53EC1A2BB4A007F09FFFB24A31
:10150000B0480068401C02EB800090ED000A10EE2D
:10151000101A084607F0DCFD41EC1A0B53EC1A2BAD
:10152000ADA007F08BFF0AB0BDEC0A8B70BD70B5A3
:101530002DED028B82B0064600259EE0002000F0D3
:10154000E3FA0446042C0CD10020A64908704FF69B
:10155000FF7001F05DFAFEF721FE02B0BDEC028BD8
:1015600070BD7DB94FF6FF7001F052FA9EA01821B0
:1015700032234FF49672CDE900101421502004F06C
:1015800020FB0125012D4ED16421502005F033F8B8
:10159000B0EE408AF0EE608A51EC180B07F0DCFDEB
:1015A00096490860AFF62430182132234FF4967222
:1015B000CDE900106421C82004F003FB8F4890EDB2
:1015C000000ADFED8F0AB4EEE00AF1EE10FA0DDD4D
:1015D00090ED000ADFED8B0AB4EEE00AF1EE10FAAE
:1015E00004D289A007F02AFF02251CE0834890ED71
:1015F000000AB5EEC00AF1EE10FA14D087A00C2153
:1016000032234FF49672CDE9001019460A2004F0F7
:10161000D8FA1FED730A794880ED000A4FF4FA708A
:1016200005F0FCFC0025022D27D1C821502004F034
:1016300001FF8049086080A0182132234FF4967280
:10164000CDE90010C821084604F0BBFA79480068CB
:101650000A2803D077480068642803D177A007F0F0
:10166000EDFE0BE07348006838B100207149086056
:101670004FF4FA7005F0D2FC02255FE700BF15E0D9
:10168000002000F041FA0446012C03D13046FFF758
:101690009EFB0BE0042C09D10020524908704FF644
:1016A000FF7001F0B5F9FEF779FD00E0E8E700BF53
:1016B00000BF52E74FF4A06005F086FDA82005F0BA
:1016C0004BFC4FF4E13005F0D6FC05F03BFB00F09D
:1016D000DDF901F0B2F9012001F045F800F055FE06
:1016E0004FF478405A4908804FF6FF7059490880F6
:1016F00000F0ECF900F075FB05F061FB05F0B0FAC5
:1017000005F083FA05F021FA4FF6FF7001F080F939
:10171000FEF744FD0020334908704CE03148007862
:10172000052843D2DFE800F0032B2E313E0004F001
:10173000ABFD0446012C02D12A4908701EE0022CA0
:1017400003D102202749087018E0032C0AD1214652
:1017500041A007F073FE03202249087000203F4992
:1017600008700BE0042C09D121463BA007F066FE6F
:1017700004201C49087001203849087017E0FFF761
:1017800046F814E0FFF7C5F911E00020FFF7CFFE9F
:101790004FF6FF7001F03CF9FEF700FD0020114903
:1017A000087004E00120FFF7C2FE00E000BF00BFA8
:1017B000642005F033FCB1E76D61782076313A2082
:1017C00025660A001C000020C00300206D617820FF
:1017D00076323A2025660A006D61782076333A2009
:1017E00025660A0002000020535045435452554DCF
:1017F0002D414E414C595A45520000001400002022
:1018000000008C420000DC4256616C6964207374F5
:101810006172745F667265710A00000072657365BB
:10182000742073746172745F6672657120706C737A
:1018300000000000180000204B487A0056616C69D7
:101840006420667265715F737465700A0000000041
:10185000460000204800002025640A0010000020F7
:10186000704700BFFEE700BFFEE700BFFEE700BF16
:10187000FEE7704770477047704700000CB50020C6
:10188000019000907648006840F480307449086008
:1018900000BF7348006800F4003000900198401CBD
:1018A0000190009818B90198B0F5A04FF1D16C489B
:1018B000006800F4003010B10120009001E0002029
:1018C00000900098012846D165484030006840F0FB
:1018D00080506349403108606248006840F44040ED
:1018E000604908605E48083000685D49083108605A
:1018F0000846006840F4004008600846006840F46C
:10190000A05008605848091F0860081F006840F090
:101910008070091F086000BF5148006800F0007027
:101920000028F9D040F20570504908604C48083052
:10193000006820F003004A49083108600846006842
:1019400040F00200086000BF45480830006800F021
:101950000C000828F8D10CBD10B54548006840F4CB
:101960007000434908603E48006840F001003C496F
:10197000086000203A4908310860394800683D494C
:101980000840374908603C48091D0860081F006886
:1019900020F48020091F0860002031490C310860C4
:1019A000FFF76CFF4FF0006031498039086010BDCF
:1019B00070B500200022022300240221284D0835A2
:1019C0002D6805F00C0020B1042806D0082834D179
:1019D00007E02A4D2A4E356033E02A4D284E356007
:1019E0002FE01F4D2D1D2D68C5F380541C4D2D1D5E
:1019F0002D6805F03F0154B1224DB5FBF1F5184EAD
:101A0000361D3668C6F3881605FB06F209E01B4D45
:101A1000B5FBF1F5124E361D3668C6F3881605FB88
:101A200006F20F4D2D1D2D68C5F301456D1C6B0091
:101A3000B2FBF3F5124E356003E0104D104E3560E9
:101A400000BF00BF064D08352D68C5F303150E4EC7
:101A5000705D0B4D2D68C540094E356070BD0000AE
:101A6000003802400070004008544007003C02402B
:101A700088ED00E0FFFFF6FE103000240024F400A3
:101A80003000002000127A00340000201CB5012133
:101A9000202006F011FA4FF4C060009001208DF86C
:101AA000040000208DF8060003208DF805000120B9
:101AB0008DF807006946044805F07CFC4FF4C061CE
:101AC000014805F0F3FC1CBD001402401CB50121C7
:101AD000112006F0F1F91020009000208DF804008C
:101AE00003208DF8050002208DF807006946234881
:101AF00005F060FC0120009002208DF80700694687
:101B00001F4805F057FC1CBD10B5044614B1012058
:101B10001C4908701B48007800B31021174805F0D5
:101B2000ABFC012805D00121154805F0A5FC0128D2
:101B300014D10A2005F072FA002012490870102111
:101B40000E4805F099FC012800D110BD01210C4878
:101B500005F092FC01280ED10420F6E71021074879
:101B600005F08AFC38B90121054805F085FC10B95B
:101B70000120044908700020E7E70000001002403F
:101B800000000240440000201CB50121202006F086
:101B900093F90121202006F08FF90121202006F081
:101BA0008BF90121202006F087F90121202006F081
:101BB00083F901208DF8040000208DF80600032031
:101BC0008DF8050001208DF8070008200090694677
:101BD000FE4805F0EFFB202000906946FB4805F029
:101BE000E9FB402000906946F84805F0E3FB8020BF
:101BF00000906946F54805F0DDFB1CBD1CB50121D0
:101C0000202006F0B3F90220009000208DF8040097
:101C100003208DF8050000208DF807006946EB4889
:101C200005F0C8FB1CBD00E0401E0028FCDC70472E
:101C30002DE9F04105460E4600270024A04601206C
:101C4000E349086005F0A2F90020E249C1F88C02DE
:101C5000DF49091D0860012005F098F92C462AE0AB
:101C6000301910F8017C4FF000081FE007F08000E9
:101C7000802804D10120D649091F086003E0002014
:101C8000D349091F0860012005F080F90120D049DF
:101C90000C39086005F07AF97806070E0020CD4966
:101CA000C1F88C0208F1010000F0FF08B8F1080F3C
:101CB000DCDB601EC4B2002CD2DC0020C449091F4A
:101CC0000860012005F062F90120C249C1F89C02B8
:101CD00005F05CF90020BE49091D0860BDE8F081EF
:101CE0002DE9F04706460F460024A046A1460025F0
:101CF000FFF784FF0120B649086005F047F900208E
:101D0000B449C1F88C02B249091D0860012005F0F0
:101D10003DF9344628E04FF000081DE06806050E46
:101D2000012005F033F9AA489438006800F0FF0953
:101D30000120A849C1F88C0209F0010008B145F062
:101D40000105012005F022F90020A1490C390860A5
:101D500008F1010000F0FF08B8F1080FDEDB3819C8
:101D600000F8015C601EC4B2002CD4DC012005F038
:101D70000DF901209649091D086005F007F90020BA
:101D80009449C1F89C02BDE8F0874FF0FA6092498F
:101D9000086048F211004860904888609048C86028
:101DA0009048086190484861082008624FF47A60C2
:101DB0004862022088620020C8620A2008639FED02
:101DC0008B0B084680ED0E0B9FED8A0B80ED060B0A
:101DD00070470870020A4A70020C8A70020ECA70BC
:101DE000704708B500200090FFF7CFFFFFF7CCFE4B
:101DF000794948696946FFF7ECFF69460420FFF717
:101E000017FF754908696946FFF7E3FF6946042033
:101E1000FFF70EFF7049C8686946FFF7DAFF6946A9
:101E20000420FFF705FF6C4988686946FFF7D1FF7A
:101E300069460420FFF7FCFE674948686946FFF7DA
:101E4000C8FF69460420FFF7F3FE63490868694646
:101E5000FFF7BFFF69460420FFF7EAFE08BD7047A1
:101E600038B5044600200090200E8DF80300200CA9
:101E70008DF80200200A8DF80100E0B28DF8000014
:101E800069460420FFF7D4FE38BD10B55B48FFF764
:101E9000E7FF40F2B340FFF7E3FF5348FFF7E0FFEF
:101EA00010BD2DE9F05F2DED088BB0EE408AF0EE0D
:101EB000608A012600279FED520B53EC102B51EC4A
:101EC000180B07F019F905D29FED4D0BB0EE408AC3
:101ED000F0EE608A9FED4C0B53EC102B51EC180B7D
:101EE00007F022F905D29FED480BB0EE408AF0EEE4
:101EF000608A4FF47A759FED460B53EC102B51EC32
:101F0000180B06F095FF41EC1B0B07F0B0F8834669
:101F100007F080F841EC1A0B9FED3D0B53EC102BB2
:101F200006F0F8FF41EC180B9FED390B53EC102B2A
:101F300051EC180B06F07CFF41EC1A0B9FED340BB3
:101F400053EC102B06F074FF234AC2E90E0151EC4A
:101F5000180B07F08CF81FFA80F84FF0000A24E005
:101F600008FB06F007F045F841EC1A0B9FED2A0B31
:101F700053EC102B07F0D8F80DD808FB06F007F04B
:101F800038F841EC1A0B9FED260B53EC102B07F0A1
:101F9000B3F800D80CE0781C87B24FF6FF7000EA67
:101FA00046060AF101001FFA80FABAF10A0FD7DBE0
:101FB00000BF304607F02EF841EC1B0B53EC182BFA
:101FC00006F036FF41EC1A0B2EE000000014024030
:101FD0009882424200804242300D0020428E0C190D
:101FE000B3040400B4A0B0000500580000000000D5
:101FF00065CDBD410000000080842E41420E0100ED
:102000000000000000804140000000000030B140AE
:102010000000000000408F40CDCCCCCCCC2FA140A4
:102020009A9999991930B1409FED460B53EC102BBA
:1020300006F070FF41EC190B51EC190B07F017F883
:102040001FFA80F91FED0E0B53EC102B51EC190BFE
:1020500006F0EEFE41EC1A0B07F009F84FF47A7126
:10206000B0FBF1F201FB120407E0052094FBF0F055
:1020700084B2052095FBF0F085B2052094FBF0F1C9
:1020800000FB114030B9052095FBF0F100FB115029
:102090000028EAD009E0204604EBD071C1F34F04D8
:1020A000284605EBD071C1F34F05214604EBD172F0
:1020B0005210A4EB42023AB9284605EBD0725210F6
:1020C000A5EB4202002AE6D0072097FBF0F100FBC7
:1020D000117087B21D48C0F82490C4620120B84036
:1020E0001A490862084685624FEAC93000EBC4000D
:1020F000086048F2010000EBC5004860144800EB9E
:1021000007500861086A06F085FF41EC1A0B53EC92
:10211000182B06F08DFE0D4AC2E910010D48FFF79D
:102120009FFE0A494868FFF79BFE08490868FFF7C9
:1021300097FE06490869FFF793FEBDEC088BBDE8E2
:10214000F09F0000000000000000F03F300D002074
:102150003C808C001C80EC0001B5BDF800000090B4
:10216000BDF80000FE49088008BD01B5BDF80000BB
:102170000090BDF80000FA49891C088008BD08B528
:10218000F748801C00880090BDF8000008BDF44AA4
:1021900010804FF0D842A2F88010704710B5044666
:1021A0002046FFF7D9FF052004F0F0FEFFF7E7FF18
:1021B00010BDEC480089EA4908807047E849891C4D
:1021C0000880704730B5014601F01F04C1F3451384
:1021D000CA0AE50205EB43151544A8B230BD00BF9D
:1021E000011EA0F10102D0B2FAD1704710B502462B
:1021F0000C46DC48808841F66311884247D1D948B3
:102200008079A8B9D7480088401E801A82B2D54983
:102210004889FFF7A1FF0020FFF7A7FF0020FFF785
:10222000A4FF1012FFF7A1FFD0B2FFF79EFF16E048
:10223000CC494889FFF790FF1012FFF796FFD0B204
:10224000FFF793FFC7490988491EC1F30F20FFF725
:102250008CFFC4490978491EC8B2FFF786FFC149FF
:102260008889FFF779FF2012FFF77FFFE0B2FFF7C1
:102270007CFFBC494988491EC1F30F20FFF775FF59
:10228000B8498978491EC8B2FFF76FFF3AE0B548F0
:10229000808845F21051884220D1B2494889FFF721
:1022A0005BFF1012FFF761FFAE494989491C88B2F4
:1022B000FFF752FFD0B2FFF758FFAA498889FFF70E
:1022C0004BFF2012FFF751FFA6498989491C88B2AC
:1022D000FFF742FFE0B2FFF748FF13E0A14948894A
:1022E000FFF73AFF1012FFF740FFD0B2FFF73DFFB4
:1022F0009C498889FFF730FF2012FFF736FFE0B2D4
:10230000FFF733FF10BD2DE9F04105460E460024CE
:102310000027A04693480088A84203DD91484088E2
:10232000B04202DC0020BDE8F08131462846FFF7CC
:102330005DFF8C48808845F21051884204D14FF4EB
:102340003850FFF709FF02E02E20FFF705FFFFF7E7
:1023500016FF04468348808841F66311884201D104
:102360002046E0E7FFF70BFF0446FFF708FF804633
:10237000E7B24FF6FF7000EA0727E012C002B91279
:1023800040EA411040EAE820CDE700B57548808872
:1023900045F21051884204D14FF42450FFF7DCFE7F
:1023A00002E02920FFF7D8FE00BD00B56D48808807
:1023B00045F21051884204D14FF42050FFF7CCFE73
:1023C00002E02820FFF7C8FE00BDF0B50546002456
:1023D000002764488079012805D16248808841F649
:1023E0006311884208D15F488079F0B95D488088E0
:1023F00041F66311884218D1082D15D2DFE805F0A7
:102400000406080A0C0E101206250DE007250BE045
:10241000042509E0052507E0012505E0002503E086
:10242000032501E0022500BF00BF082D1CD2DFE814
:1024300005F00406090C0F12151800BF14E044F053
:10244000800411E044F040040EE044F0C0040BE0CE
:1024500044F0200408E044F0600405E044F0A004E7
:1024600002E044F0E00400BF00BF3E48808845F22F
:102470001051884202D14FF4585700E036273948AE
:10248000808849F24131884205D03648808847F239
:102490008971884201D144F0080421463846FFF78B
:1024A00076FE3048808841F6631188421DD004F0E2
:1024B000200068B12B4800882A494988884214DAEC
:1024C00028480688408827490880084646800CE04E
:1024D0002448008823494988884206DD2148068827
:1024E000408820490880084646801E48808845F27A
:1024F0001051884257D11B494889FFF72DFE002013
:10250000FFF733FE17494989491C88B2FFF724FEBB
:102510000020FFF72AFE13494989891C88B2FFF77A
:102520001BFE10490988491EC1F30F20FFF71DFE4D
:102530000C494989C91C88B2FFF70EFE0949097880
:10254000491EC8B2FFF711FE06498889FFF704FE4D
:102550000020FFF70AFE03498989491C88B203E07D
:102560007E00006C780D0020FFF7F6FD0020FFF7DD
:10257000FCFDFE498989891C88B2FFF7EDFDFB4906
:102580004988491EC1F30F20FFF7EFFDF7498989FC
:10259000C91C88B2FFF7E0FDF4498978491EC8B22A
:1025A000FFF7E3FD2DE0F1494889FFF7D5FD002055
:1025B000FFF7DBFD0020FFF7D8FDEC490988491E35
:1025C000C1F30F20FFF7D1FDE8490978491EC8B2D1
:1025D000FFF7CBFDE5498889FFF7BEFD0020FFF737
:1025E000C4FD0020FFF7C1FDE0494988491EC1F341
:1025F0000F20FFF7BAFDDD498978491EC8B2FFF701
:10260000B4FDF0BD30B504460D4629462046FFF71F
:10261000EDFDFFF7CEFDD6480088D649088030BDD5
:1026200030B504460D46D148808845F210518842A5
:1026300020D1CE494889FFF78FFD2012FFF795FD85
:10264000CA494989491C88B2FFF786FDE0B2FFF705
:102650008CFDC6498889FFF77FFD2812FFF785FDAD
:10266000C2498989491C88B2FFF776FDE8B2FFF7B5
:102670007CFD42E0BD48808841F66311884228D144
:10268000BA48807920B9B9480088401E001B84B23E
:10269000B6494889FFF760FD2012FFF766FDE0B2FA
:1026A000FFF763FD2012FFF760FDE0B2FFF75DFD6D
:1026B000AE498889FFF750FD2812FFF756FDE8B2B2
:1026C000FFF753FD2812FFF750FDE8B2FFF74DFD6D
:1026D00013E0A6494889FFF73FFD2012FFF745FDAB
:1026E000E0B2FFF742FDA1498889FFF735FD2812C6
:1026F000FFF73BFDE8B2FFF738FD9C4800899D4994
:10270000891E08804FF0D840A0F8802030BD70B5F9
:102710002DED048B0446BE20FFF71EFD0520FFF7BC
:1027200024FD204606F076FC41EC190B9FED920B40
:1027300053EC102B06F07CFB41EC180B06F097FCD9
:1027400085B22846FFF711FD0120FFF70EFDFF209F
:10275000FFF70BFD0020FFF708FD0020FFF705FD48
:10276000BDEC048B70BD10B5044680488471002C0C
:1027700045D1F0207D4908804FF4A070488008467C
:10278000808845F21051884210D14FF4305077497B
:1027900008814FF4285048814FF42C5088814FF421
:1027A000F07008804FF4487048801AE06F488088C5
:1027B00041F6631188420DD12C206C4908812B20F1
:1027C00048812A2088814FF4F07008804FF44870C7
:1027D000488006E02C20654908812A2048812B206A
:1027E00088816248808845F2103188424CD14FF48C
:1027F000A0705E4908804FF4F070488044E04FF4C8
:10280000A0705A490880F02048800846808845F228
:102810001051884210D14FF43050544908814FF480
:10282000285048814FF42C5088814FF4487008801C
:102830004FF4F07048801AE04C48808841F66311EC
:1028400088420DD12C20494908812A2048812B201B
:1028500088814FF4487008804FF4F070488006E09B
:102860002C20424908812A2048812B2088813F481A
:10287000808845F21031884206D14FF4F0703B4910
:1028800008804FF4A07048800020FFF79EFD10BD27
:102890002DE9F04104460D461E46A018401E87B2A1
:1028A000A819401E1FFA80F83048808841F663114D
:1028B000884231D12D48807901282DD02B480088BD
:1028C000801A001B84B2A819401E86B22749488985
:1028D000FFF742FC2012FFF748FCE0B2FFF745FC8F
:1028E000A118491EC1F30F20FFF73FFCA118491E94
:1028F000C8B2FFF73AFC1D498889FFF72DFC281262
:10290000FFF733FCE8B2FFF730FC3012FFF72DFC85
:10291000F0B2FFF72AFC79E01448808845F21051A4
:10292000884251D111494889FFF716FC2012FFF760
:102930001CFC0E494989491C88B2FFF70DFCE0B226
:10294000FFF713FC09494989891C88B2FFF704FC89
:102950003812FFF70AFC05494989C91C88B2FFF7FC
:10296000FBFBF8B2FFF701FC004909E0780D0020FD
:10297000460000208000006C66666666666604405D
:102980008889FFF7E9FB2812FFF7EFFBFD498989EA
:10299000491C88B2FFF7E0FBE8B2FFF7E6FBF94914
:1029A0008989891C88B2FFF7D7FB4FEA2820FFF7F7
:1029B000DCFBF4498989C91C88B2FFF7CDFB08F01C
:1029C000FF00FFF7D2FB21E0EE494889FFF7C4FB87
:1029D0002012FFF7CAFBE0B2FFF7C7FB3812FFF780
:1029E000C4FBF8B2FFF7C1FBE6498889FFF7B4FBE7
:1029F0002812FFF7BAFBE8B2FFF7B7FB4FEA28202F
:102A0000FFF7B3FB08F0FF00FFF7AFFBBDE8F08175
:102A100070B504460026DB48058840884543002100
:102A20000846FFF7E3FBFFF7C4FB00BF02E0D64810
:102A30000480761CAE42FAD370BD00B5A1B0002070
:102A4000209001217A2005F037FA0121084605F08F
:102A50006BFA4FF400401E9001208DF87C0000209E
:102A60008DF87E0002208DF87D0001208DF87F001A
:102A70001EA9C64804F09EFC4CF233701E90022042
:102A80008DF87C0000208DF87E0003208DF87D00FD
:102A900001208DF87F001EA9BD4804F08BFC4FF685
:102AA00080701E9002208DF87C0000208DF87E0042
:102AB00003208DF87D0001208DF87F001EA9B54808
:102AC00004F078FC4FF480501E9002208DF87C00BA
:102AD00000208DF87E0003208DF87D0001208DF808
:102AE0007F001EA9AC4804F065FC4FF480501E9096
:102AF00002208DF87C0000208DF87E0003208DF8E8
:102B00007D0001208DF87F001EA9A44804F052FC2E
:102B10000C2200219E4804F0D8FC0C2201219C4884
:102B200004F0D3FC0C220421994804F0CEFC0C22C2
:102B30000521974804F0C9FC0C220821944804F0B0
:102B4000C4FC0C220921924804F0BFFC0C220A218B
:102B50008F4804F0BAFC0C220E218D4804F0B5FC1D
:102B60000C220F218A4804F0B0FC0C22072189486E
:102B700004F0ABFC0C220821864804F0A6FC0C22D1
:102B80000921844804F0A1FC0C220A21814804F0A8
:102B90009CFC0C220B217F4804F097FC0C22114670
:102BA0007C4804F092FC0C220D217A4804F08DFC44
:102BB0000C220E21774804F088FC0C220F21754866
:102BC00004F083FC0C221146734804F07EFC0C22B6
:102BD0001146724804F079FC0F20089000200990FB
:102BE0003C200A9000200B900C900D900E90092034
:102BF000019000200290082003900020049005908E
:102C00000690079006200F90002010901190102041
:102C100012900020139015901490169017904FF476
:102C200080501890002019904FF480401A90002096
:102C30001B9008A81C9001A81D900FA804F099FCF7
:102C40000121062004F020FD322004F0E7F9D32012
:102C5000FFF782FAFFF793FA4A498880FFF78FFA65
:102C600048498880FFF78BFA464988800846808863
:102C70004FF6FF7101EA002042498880FFF77FFA92
:102C80004049898808433F4988800846808849F23E
:102C90004131884275D00420FFF75EFAFFF76FFAE2
:102CA00038498880FFF76BFA36498880FFF767FA62
:102CB00034498880084680884FF6FF7101EA002079
:102CC00030498880FFF75BFA2E49898808432D49EF
:102CD00088800846808848F25251884203D147F2E2
:102CE0008970284988802748808847F289718842FE
:102CF000D0D0D420FFF730FAFFF741FA214988807D
:102D0000FFF73DFA1F498880FFF739FA1D4988808F
:102D1000084680884FF6FF7101EA00201949888033
:102D2000FFF72DFA17498988084316498880084615
:102D3000808845F21031884279D055214FF4704097
:102D4000FFF725FAAA214FF20100FFF720FA5221DE
:102D50004FF20200FFF71BFA08214FF20300FFF7C2
:102D600016FA01214FF20400FFF711FA4FF4454023
:102D7000FFF7F2F9FFF703FA0249888008468088D6
:102D80000EE054E0780D00208000006C000402404A
:102D9000000C0240001002400014024000180240E3
:102DA0004FF6FF7101EA0020FE4988804CF2015085
:102DB000FFF7D2F9FFF7E3F9FA4989880843F9499F
:102DC0008880052004F02AF9F6488088B0F5004F85
:102DD00003D145F21050F3498880F248808845F2CB
:102DE0001051884223D0A120FFF7B6F9FFF7C7F9A9
:102DF000EC498880FFF7C3F9EA4988800846808853
:102E00004FF6FF7101EA0020E6498880FFF7B7F925
:102E1000E44989880843E34988800846808845F268
:102E20006171884203D141F66310DE498880DD4834
:102E3000808849F24131884217D0DA48808847F2C9
:102E40008971884211D0D748808845F21031884274
:102E50000BD0D448808845F21051884205D0D14823
:102E6000808841F6631188422CD1CF48006820F059
:102E70000F004FF02041C1F81C010846D0F81C019A
:102E800020F47060C1F81C010846D0F81C0140F025
:102E90000300C1F81C01C348808847F28971884249
:102EA00008D1C148006840F440704FF02041C1F89B
:102EB0001C0107E0BC48006840F400704FF020415E
:102EC000C1F81C01B7488188B8A006F0B7FAB54828
:102ED000808849F2413188427ED1CF20FFF73CF90A
:102EE0000020FFF742F9C120FFF73FF93020FFF73C
:102EF0003CF9ED20FFF730F96420FFF736F90320A5
:102F0000FFF733F91220FFF730F98120FFF72DF991
:102F1000E820FFF721F98520FFF727F91020FFF7B8
:102F200024F97A20FFF721F9CB20FFF715F9392092
:102F3000FFF71BF92C20FFF718F90020FFF715F910
:102F40003420FFF712F90220FFF70FF9F720FFF7FF
:102F500003F92020FFF709F9EA20FFF7FDF8002028
:102F6000FFF703F90020FFF700F9C020FFF7F4F89E
:102F70001B20FFF7FAF8C120FFF7EEF80120FFF75A
:102F8000F4F8C520FFF7E8F83020FFF7EEF830201E
:102F9000FFF7EBF8C720FFF7DFF8B720FFF7E5F8FA
:102FA0003620FFF7D9F84820FFF7DFF83A20FFF77F
:102FB000D3F85520FFF7D9F8B120FFF7CDF800205E
:102FC000FFF7D3F81A20FFF7D0F8B620FFF7C4F8C0
:102FD0000A20FFF7CAF800E097E0A220FFF7C5F843
:102FE000F220FFF7B9F80020FFF7BFF82620FFF71F
:102FF000B3F80120FFF7B9F8E020FFF7ADF80F2094
:10300000FFF7B3F82A20FFF7B0F82820FFF7ADF854
:103010000820FFF7AAF80E20FFF7A7F80820FFF70F
:10302000A4F85420FFF7A1F8A920FFF79EF8432049
:10303000FFF79BF80A20FFF798F80F20FFF795F8A5
:103040000020FFF792F80020FFF78FF80020FFF72D
:103050008CF80020FFF789F8E120FFF77DF80020C9
:10306000FFF783F81520FFF780F81720FFF77DF8AA
:103070000720FFF77AF81120FFF777F80620FFF70F
:1030800074F82B20FFF771F85620FFF76EF83C20FC
:10309000FFF76BF80520FFF768F81020FFF765F8D9
:1030A0000F20FFF762F83F20FFF75FF83F20FFF7A0
:1030B0005CF80F20FFF759F82B20FFF74DF80020A0
:1030C000FFF753F80020FFF750F80120FFF74DF805
:1030D0003F20FFF74AF82A20FFF73EF80020FFF7CD
:1030E00044F80020FFF741F80020FFF73EF8EF20FA
:1030F000FFF73BF81120FFF72FF8782003F08EFF41
:103100002920FFF729F802F0B2B82648808847F254
:10311000897188427DD11120FFF71EF8782003F0D5
:103120007DFF3620FFF718F80020FFF71EF83A2041
:10313000FFF712F80520FFF718F8B220FFF70CF898
:103140000C20FFF712F80C20FFF70FF80020FFF714
:103150000CF83320FFF709F83320FFF706F8B72003
:10316000FEF7FAFF3520FFF700F8BB20FEF7F4FF6B
:103170003220FEF7FAFFC020FEF7EEFF0C20FEF72C
:10318000F4FFC220FEF7E8FF0120FEF7EEFFC320A8
:10319000FEF7E2FF1020FEF7E8FFC420FEF7DCFF99
:1031A00020200BE0780D00201C0100A0204C43449F
:1031B0002049443A25780D0A00000000FEF7D5FFAB
:1031C000C620FEF7C9FF0F20FEF7CFFFD020FEF785
:1031D000C3FFA420FEF7C9FFA120FEF7C6FFE02031
:1031E000FEF7BAFFD020FEF7C0FF0020FEF7BDFFBC
:1031F0000220FEF7BAFF0720FEF7B7FF0A20FEF70E
:10320000B4FF2820FEF7B1FF3220FEF7AEFF4420C6
:1032100000E062E0FEF7A9FF4220FEF7A6FF0620CD
:10322000FEF7A3FF0E20FEF7A0FF1220FEF79DFF82
:103230001420FEF79AFF1720FEF797FFE120FEF714
:103240008BFFD020FEF791FF0020FEF78EFF0220BB
:10325000FEF78BFF0720FEF788FF0A20FEF785FFA9
:103260002820FEF782FF3120FEF77FFF5420FEF773
:103270007CFF4720FEF779FF0E20FEF776FF1C202B
:10328000FEF773FF1720FEF770FF1B20FEF76DFFA0
:103290001E20FEF76AFF2A20FEF75EFF0020FEF7E1
:1032A00064FF0020FEF761FF0020FEF75EFFEF20C5
:1032B000FEF75BFF2B20FEF74FFF0020FEF755FFC8
:1032C0000020FEF752FF0120FEF74FFF3F20FEF7E0
:1032D0004CFF2920FEF740FF15E7FE48808845F2A5
:1032E0001031884240F07C87ED20FEF735FF012049
:1032F000FEF73BFFFE20FEF738FFEE20FEF72CFF27
:10330000DE20FEF732FF2120FEF72FFFF120FEF72F
:1033100023FF0120FEF729FFDF20FEF71DFF10200D
:10332000FEF723FFC420FEF717FF8F20FEF71DFFD7
:10333000C620FEF711FF0020FEF717FFE220FEF780
:1033400014FFE220FEF711FFE220FEF70EFFBF2080
:10335000FEF702FFAA20FEF708FFB020FEF7FCFEF2
:103360000D20FEF702FF0020FEF7FFFE0D20FEF706
:10337000FCFE0020FEF7F9FE1120FEF7F6FE00200D
:10338000FEF7F3FE1920FEF7F0FE0020FEF7EDFE3B
:103390002120FEF7EAFE0020FEF7E7FE2D20FEF7D3
:1033A000E4FE0020FEF7E1FE3D20FEF7DEFE0020F9
:1033B000FEF7DBFE5D20FEF7D8FE0020FEF7D5FE0F
:1033C0005D20FEF7D2FE0020FEF7CFFEB120FEF713
:1033D000C3FE8020FEF7C9FE0020FEF7C6FE8B204C
:1033E000FEF7C3FE0020FEF7C0FE9620FEF7BDFEEE
:1033F0000020FEF7BAFEB220FEF7AEFE0020FEF778
:10340000B4FE0020FEF7B1FE0220FEF7AEFE002063
:10341000FEF7ABFE0320FEF7A8FE0020FEF7A5FE98
:10342000B320FEF799FE0020FEF79FFE0020FEF776
:103430009CFE0020FEF799FE0020FEF796FE00207D
:10344000FEF793FE0020FEF790FE0020FEF78DFEB3
:103450000020FEF78AFE0020FEF787FE0020FEF720
:1034600084FE0020FEF781FE0020FEF77EFE002095
:10347000FEF77BFE0020FEF778FE0020FEF775FECB
:103480000020FEF772FE0020FEF76FFE0020FEF720
:103490006CFE0020FEF769FE0020FEF766FE0020AD
:1034A000FEF763FE0020FEF760FE0020FEF75DFEE3
:1034B0000020FEF75AFEB420FEF74EFE8B20FEF7EA
:1034C00054FE0020FEF751FE9620FEF74EFE00202F
:1034D000FEF74BFEA120FEF748FE0020FEF745FE5A
:1034E000B520FEF739FE0220FEF73FFE0020FEF772
:1034F0003CFE0320FEF739FE0020FEF736FE0420D6
:10350000FEF733FE0020FEF730FEB620FEF724FE65
:103510000020FEF72AFE0020FEF727FEB720FEF768
:103520001BFE0020FEF721FE0020FEF71EFE3F20BE
:10353000FEF71BFE0020FEF718FE5E20FEF715FECC
:103540000020FEF712FE6420FEF70FFE0020FEF7BB
:103550000CFE8C20FEF709FE0020FEF706FEAC20D4
:10356000FEF703FE0020FEF700FEDC20FEF7FDFD67
:103570000020FEF7FAFD7020FEF7F7FD0020FEF7B1
:10358000F4FD9020FEF7F1FD0020FEF7EEFDEB20AC
:10359000FEF7EBFD0020FEF7E8FDDC20FEF7E5FD81
:1035A0000020FEF7E2FDB820FEF7D6FD0020FEF772
:1035B000DCFD0020FEF7D9FD0020FEF7D6FD00203F
:1035C000FEF7D3FD0020FEF7D0FD0020FEF7CDFD75
:1035D0000020FEF7CAFD0020FEF7C7FDBA20FEF767
:1035E000BBFD2420FEF7C1FD0020FEF7BEFD00203C
:1035F000FEF7BBFD0020FEF7B8FDC120FEF7ACFDD5
:103600002020FEF7B2FD0020FEF7AFFD5420FEF7AC
:10361000ACFD0020FEF7A9FDFF20FEF7A6FD00206F
:10362000FEF7A3FDC220FEF797FD0A20FEF79DFDE1
:103630000020FEF79AFD0420FEF797FD0020FEF71C
:1036400094FDC320FEF788FD3C20FEF78EFD002090
:10365000FEF78BFD3A20FEF788FD0020FEF785FD82
:103660003920FEF782FD0020FEF77FFD3720FEF7B0
:103670007CFD0020FEF779FD3C20FEF776FD002062
:10368000FEF773FD3620FEF770FD0020FEF76DFD9E
:103690003220FEF76AFD0020FEF767FD2F20FEF7BF
:1036A00064FD0020FEF761FD2C20FEF75EFD00208A
:1036B000FEF75BFD2920FEF758FD0020FEF755FDC3
:1036C0002620FEF752FD0020FEF74FFD2420FEF7D6
:1036D0004CFD01E0780D00200020FEF746FD24207F
:1036E000FEF743FD0020FEF740FD2320FEF73DFDE1
:1036F0000020FEF73AFD3C20FEF737FD0020FEF7E4
:1037000034FD3620FEF731FD0020FEF72EFD32207D
:10371000FEF72BFD0020FEF728FD2F20FEF725FDEC
:103720000020FEF722FD2C20FEF71FFD0020FEF7F3
:103730001CFD2920FEF719FD0020FEF716FD2620AE
:10374000FEF713FD0020FEF710FD2420FEF70DFD0F
:103750000020FEF70AFD2420FEF707FD0020FEF7FB
:1037600004FD2320FEF701FD0020FEF7FEFCC4202F
:10377000FEF7F2FC6220FEF7F8FC0020FEF7F5FCF5
:103780000520FEF7F2FC0020FEF7EFFC8420FEF798
:10379000ECFC0020FEF7E9FCF020FEF7E6FC002040
:1037A000FEF7E3FC1820FEF7E0FC0020FEF7DDFC4E
:1037B000A420FEF7DAFC0020FEF7D7FC1820FEF765
:1037C000D4FC0020FEF7D1FC5020FEF7CEFC0020F8
:1037D000FEF7CBFC0C20FEF7C8FC0020FEF7C5FC72
:1037E0001720FEF7C2FC0020FEF7BFFC9520FEF775
:1037F000BCFC0020FEF7B9FCF320FEF7B6FC00206D
:10380000FEF7B3FCE620FEF7B0FC0020FEF7ADFCAF
:10381000C520FEF7A1FC3220FEF7A7FC0020FEF732
:10382000A4FC4420FEF7A1FC0020FEF79EFC6520CE
:10383000FEF79BFC0020FEF798FC7620FEF795FC37
:103840000020FEF792FC8820FEF78FFC0020FEF798
:103850008CFCC620FEF780FC2020FEF786FC0020B2
:10386000FEF783FC1720FEF780FC0020FEF77DFCAE
:103870000120FEF77AFC0020FEF777FCC720FEF758
:103880006BFC0020FEF771FC0020FEF76EFC0020B0
:10389000FEF76BFC0020FEF768FCC820FEF75CFC1E
:1038A0000020FEF762FC0020FEF75FFC0020FEF720
:1038B0005CFC0020FEF759FCC920FEF74DFC0020FF
:1038C000FEF753FC0020FEF750FC0020FEF74DFCF5
:1038D0000020FEF74AFC0020FEF747FC0020FEF720
:1038E00044FC0020FEF741FC0020FEF73EFC0020D7
:1038F000FEF73BFC0020FEF738FC0020FEF735FC0D
:103900000020FEF732FC0020FEF72FFC0020FEF71F
:103910002CFC0020FEF729FC0020FEF726FCE0200E
:10392000FEF71AFC1620FEF720FC0020FEF71DFC17
:103930001C20FEF71AFC0020FEF717FC2120FEF7E2
:1039400014FC0020FEF711FC3620FEF70EFC0020D0
:10395000FEF70BFC4620FEF708FC0020FEF705FCF6
:103960005220FEF702FC0020FEF7FFFB6420FEF76A
:10397000FCFB0020FEF7F9FB7A20FEF7F6FB0020A7
:10398000FEF7F3FB8B20FEF7F0FB0020FEF7EDFBCC
:103990009920FEF7EAFB0020FEF7E7FBA820FEF7E0
:1039A000E4FB0020FEF7E1FBB920FEF7DEFB002080
:1039B000FEF7DBFBC420FEF7D8FB0020FEF7D5FBAB
:1039C000CA20FEF7D2FB0020FEF7CFFBD220FEF785
:1039D000CCFB0020FEF7C9FBD920FEF7C6FB002078
:1039E000FEF7C3FBE020FEF7C0FB0020FEF7BDFBA7
:1039F000F320FEF7BAFB0020FEF7B7FBE120FEF74D
:103A0000ABFB1620FEF7B1FB0020FEF7AEFB1C203F
:103A1000FEF7ABFB0020FEF7A8FB2220FEF7A5FB7C
:103A20000020FEF7A2FB3620FEF79FFB0020FEF7EA
:103A30009CFB4520FEF799FB0020FEF796FB5220E9
:103A4000FEF793FB0020FEF790FB6420FEF78DFB52
:103A50000020FEF78AFB7A20FEF787FB0020FEF7A6
:103A600084FB8B20FEF781FB0020FEF77EFB992074
:103A7000FEF77BFB0020FEF778FBA820FEF775FB26
:103A80000020FEF772FBB920FEF76FFB0020FEF767
:103A90006CFBC420FEF769FB0020FEF766FBCA2022
:103AA000FEF763FB0020FEF760FBD220FEF75DFB14
:103AB0000020FEF75AFBD820FEF757FB0020FEF748
:103AC00054FBE020FEF751FB0020FEF74EFBF320F5
:103AD000FEF74BFB0020FEF748FBE220FEF73CFB25
:103AE0000520FEF742FB0020FEF73FFB0B20FEF710
:103AF0003CFB0020FEF739FB1B20FEF736FB0020C5
:103B0000FEF733FB3420FEF730FB0020FEF72DFBE1
:103B10004420FEF72AFB0020FEF727FB4F20FEF78C
:103B200024FB0020FEF721FB6120FEF71EFB002096
:103B3000FEF71BFB7920FEF718FB0020FEF715FBB4
:103B40008820FEF712FB0020FEF70FFB9720FEF700
:103B50000CFB0020FEF709FBA620FEF706FB002069
:103B6000FEF703FBB720FEF700FB0020FEF7FDFA8F
:103B7000C220FEF7FAFA0020FEF7F7FAC720FEF798
:103B8000F4FA0020FEF7F1FAD120FEF7EEFA002059
:103B9000FEF7EBFAD620FEF7E8FA0020FEF7E5FA8A
:103BA000DD20FEF7E2FA0020FEF7DFFAF320FEF751
:103BB000DCFA0020FEF7D9FAE320FEF7CDFA052063
:103BC000FEF7D3FA0020FEF7D0FA0A20FEF7CDFA6E
:103BD0000020FEF7CAFA1C20FEF7C7FA0020FEF705
:103BE000C4FA3320FEF7C1FA0020FEF7BEFA4420E3
:103BF000FEF7BBFA0020FEF7B8FA5020FEF7B5FA40
:103C00000020FEF7B2FA6220FEF7AFFA0020FEF7BE
:103C1000ACFA7820FEF7A9FA0020FEF7A6FA882071
:103C2000FEF7A3FA0020FEF7A0FA9720FEF79DFA10
:103C30000020FEF79AFAA620FEF797FA0020FEF77A
:103C400094FAB720FEF791FA0020FEF78EFAC22010
:103C5000FEF78BFA0020FEF788FAC720FEF785FAF8
:103C60000020FEF782FAD120FEF77FFA0020FEF74F
:103C70007CFAD520FEF779FA0020FEF776FADD20EF
:103C8000FEF773FA0020FEF770FAF320FEF76DFAE4
:103C90000020FEF76AFAE420FEF75EFA0120FEF744
:103CA00064FA0020FEF761FA0120FEF75EFA0020B8
:103CB000FEF75BFA0220FEF758FA0020FEF755FAED
:103CC0002A20FEF752FA0020FEF74FFA3C20FEF7BA
:103CD0004CFA0020FEF749FA4B20FEF746FA002086
:103CE000FEF743FA5D20FEF740FA0020FEF73DFAAA
:103CF0007420FEF73AFA0020FEF737FA8420FEF728
:103D000034FA0020FEF731FA9320FEF72EFA002055
:103D1000FEF72BFAA220FEF728FA0020FEF725FA7C
:103D2000B320FEF722FA0020FEF71FFABE20FEF7AE
:103D30001CFA0020FEF719FAC420FEF716FA00203C
:103D4000FEF713FACD20FEF710FA0020FEF70DFA69
:103D5000D320FEF70AFA0020FEF707FADD20FEF76F
:103D600004FA0020FEF701FAF320FEF7FEF9002026
:103D7000FEF7FBF9E520FEF7EFF90020FEF7F5F975
:103D80000020FEF7F2F90020FEF7EFF90020FEF721
:103D9000ECF90220FEF7E9F90020FEF7E6F9292008
:103DA000FEF7E3F90020FEF7E0F93C20FEF7DDF92D
:103DB0000020FEF7DAF94B20FEF7D7F90020FEF7D6
:103DC000D4F95D20FEF7D1F90020FEF7CEF974207A
:103DD000FEF7CBF90020FEF7C8F98420FEF7C5F9FD
:103DE0000020FEF7C2F99320FEF7BFF90020FEF78E
:103DF000BCF9A220FEF7B9F90020FEF7B6F9B3200E
:103E0000FEF7B3F90020FEF7B0F9BE20FEF7ADF9DA
:103E10000020FEF7AAF9C420FEF7A7F90020FEF75C
:103E2000A4F9CD20FEF7A1F90020FEF79EF9D320DA
:103E3000FEF79BF90020FEF798F9DC20FEF795F9D4
:103E40000020FEF792F9F320FEF78FF90020FEF72D
:103E50008CF9E620FEF780F91120FEF786F90020A4
:103E6000FEF783F93420FEF780F90020FEF77DF994
:103E70005620FEF77AF90020FEF777F97620FEF754
:103E800074F90020FEF771F97720FEF76EF9002033
:103E9000FEF76BF96620FEF768F90020FEF765F97A
:103EA0008820FEF762F90020FEF75FF99920FEF7FF
:103EB0005CF90020FEF759F9BB20FEF756F9002007
:103EC000FEF753F99920FEF750F90020FEF74DF95F
:103ED0006620FEF74AF90020FEF747F95520FEF765
:103EE00044F90020FEF741F95520FEF73EF9002085
:103EF000FEF73BF94520FEF738F90020FEF735F9CB
:103F00004320FEF732F90020FEF72FF94420FEF798
:103F10002CF90020FEF729F9E720FEF71DF93220E1
:103F2000FEF723F90020FEF720F95520FEF71DF9D2
:103F30000020FEF71AF97620FEF717F90020FEF7A9
:103F400014F96620FEF711F90020FEF70EF967203C
:103F5000FEF70BF90020FEF708F96720FEF705F9D8
:103F60000020FEF702F98720FEF7FFF80020FEF799
:103F7000FCF89920FEF7F9F80020FEF7F6F8BB20D0
:103F8000FEF7F3F80020FEF7F0F89920FEF7EDF8C1
:103F90000020FEF7EAF87720FEF7E7F80020FEF7AA
:103FA000E4F84420FEF7E1F80020FEF7DEF85620A2
:103FB000FEF7DBF80020FEF7D8F82320FEF7D5F84F
:103FC0000020FEF7D2F83320FEF7CFF80020FEF7EE
:103FD000CCF84520FEF7C9F80020FEF7C6F8E82027
:103FE000FEF7BAF80020FEF7C0F80020FEF7BDF893
:103FF0009920FEF7BAF80020FEF7B7F88720FEF701
:10400000B4F80020FEF7B1F88820FEF7AEF80020E3
:10401000FEF7ABF87720FEF7A8F80020FEF7A5F82A
:104020006620FEF7A2F80020FEF79FF88820FEF732
:104030009CF80020FEF799F8AA20FEF796F80020D9
:10404000FEF793F8BB20FEF790F80020FEF78DF8FE
:104050009920FEF78AF80020FEF787F86620FEF721
:1040600084F80020FEF781F85520FEF77EF8002046
:10407000FEF77BF85520FEF778F80020FEF775F87C
:104080004420FEF772F80020FEF76FF84420FEF798
:104090006CF80020FEF769F85520FEF766F800205E
:1040A000FEF763F8E920FEF757F8AA20FEF75DF85F
:1040B0000020FEF75AF80020FEF757F80020FEF720
:1040C00054F80020FEF748F8AA20FEF74EF8CF205B
:1040D000FEF742F80020FEF748F80020FEF745F80A
:1040E0000020FEF742F80020FEF73FF80020FEF720
:1040F0003CF80020FEF739F80020FEF736F80020E3
:10410000FEF733F80020FEF730F80020FEF72DF818
:104110000020FEF72AF80020FEF727F80020FEF71F
:1041200024F80020FEF721F80020FEF71EF80020FA
:10413000FEF71BF80020FEF718F8F020FEF70CF849
:104140000020FEF712F85020FEF70FF80020FEF7CF
:104150000CF80020FEF709F80020FEF706F8F3201F
:10416000FDF7FAFF0020FEF700F8F920FDF7F4FF55
:104170000620FDF7FAFF1020FDF7F7FF2920FDF7D5
:10418000F4FF0020FDF7F1FF3A20FDF7E5FF552091
:10419000FDF7EBFF1120FDF7DFFF642002F03EFF8B
:1041A0002920FDF7D9FF3520FDF7D6FF0020FDF7C8
:1041B000DCFF5120FDF7D0FFFF20FDF7D6FF532095
:1041C000FDF7CAFF2C20FDF7D0FF5520FDF7C4FFF7
:1041D0008220FDF7CAFF2C20FDF7BEFF01F047B893
:1041E000FE48808845F2105188427DD155214FF418
:1041F0007040FDF7CCFFAA214FF20100FDF7C7FF89
:1042000052214FF20200FDF7C2FF08214FF20300D6
:10421000FDF7BDFF01214FF20400FDF7B8FF0D21AE
:104220004FF43040FDF7B3FF0D214BF20100FDF7D5
:10423000AEFF0D214BF20200FDF7A9FF34214FF430
:104240003640FDF7A4FF34214BF20160FDF79FFFDC
:1042500034214BF20260FDF79AFF0D214FF43140FB
:10426000FDF795FF0D214BF20110FDF790FF0D2199
:104270004BF20210FDF78BFF34214FF43740FDF76E
:1042800086FF34214BF20170FDF781FF34214BF2A0
:104290000270FDF77CFF00214FF43240FDF777FFFD
:1042A00000214BF20120FDF772FF00214BF20220AA
:1042B000FDF76DFF24214FF43840FDF768FF2421FE
:1042C0004BF60100FDF763FF24214BF60200FDF7DA
:1042D0005EFF01214FF43F40FDF759FF0F214FF4DE
:1042E0003340FDF754FF00E0FDE30F214BF20130B6
:1042F000FDF74DFF0F214BF20230FDF748FF34214F
:104300004FF43940FDF743FF34214BF60110FDF720
:104310003EFF34214BF60210FDF739FF08214FF420
:104320003540FDF734FF08214BF20150FDF72FFF18
:1043300008214BF20250FDF72AFF03214FF44240BF
:10434000FDF725FF24214FF43A40FDF720FF2421FB
:104350004BF60120FDF71BFF24214BF60220FDF751
:1043600016FF00214FF43C40FDF711FF78214BF67A
:104370000140FDF70CFF00214BF60240FDF707FF5F
:1043800000214FF43D40FDF702FF78214BF601502C
:10439000FDF7FDFE00214BF60250FDF7F8FE00216F
:1043A0004FF43E40FDF7F3FE64214BF60160FDF74C
:1043B000EEFE00214FF45140FDF7E9FE33214DF2AE
:1043C0000110FDF7E4FE00214DF20210FDF7DFFEC3
:1043D00034214DF20310FDF7DAFE00214DF20410F6
:1043E000FDF7D5FE3A214DF20510FDF7D0FE002174
:1043F0004DF20610FDF7CBFE4A214DF20710FDF7F6
:10440000C6FE00214DF20810FDF7C1FE5C214DF201
:104410000910FDF7BCFE00214DF20A10FDF7B7FEB2
:1044200081214DF20B10FDF7B2FE00214DF20C1070
:10443000FDF7ADFEA6214DF20D10FDF7A8FE0021FF
:104440004DF20E10FDF7A3FEE5214DF20F10FDF722
:104450009EFE01214DF21010FDF799FE13214DF241
:104460001110FDF794FE01214DF21210FDF78FFEA1
:1044700054214DF21310FDF78AFE01214DF2141064
:10448000FDF785FE82214DF21510FDF780FE01211A
:104490004DF21610FDF77BFECA214DF21710FDF705
:1044A00076FE02214DF21810FDF771FE00214DF24B
:1044B0001910FDF76CFE02214DF21A10FDF767FE90
:1044C00001214DF21B10FDF762FE02214DF21C107E
:1044D000FDF75DFE34214DF21D10FDF758FE02215F
:1044E0004DF21E10FDF753FE67214DF21F10FDF730
:1044F0004EFE02214DF22010FDF749FE84214DF2BF
:104500002110FDF744FE02214DF22210FDF73FFE7F
:10451000A4214DF22310FDF73AFE02214DF22410A2
:10452000FDF735FEB7214DF22510FDF730FE0221D3
:104530004DF22610FDF72BFECF214DF22710FDF78F
:1045400026FE02214DF22810FDF721FEDE214DF25C
:104550002910FDF71CFE02214DF22A10FDF717FE6F
:10456000F2214DF22B10FDF712FE02214DF22C101C
:10457000FDF70DFEFE214DF22D10FDF708FE032183
:104580004DF22E10FDF703FE10214DF22F10FDF716
:10459000FEFD03214DF23010FDF7F9FD33214DF200
:1045A0003110FDF7F4FD03214DF23210FDF7EFFD60
:1045B0006D214DF23310FDF7EAFD00214FF452401A
:1045C000FDF7E5FD33214DF20120FDF7E0FD00216F
:1045D0004DF20220FDF7DBFD342101E0780D0020D3
:1045E0004DF20320FDF7D3FD00214DF20420FDF72D
:1045F000CEFD3A214DF20520FDF7C9FD00214DF217
:104600000620FDF7C4FD4A214DF20720FDF7BFFD4E
:1046100000214DF20820FDF7BAFD5C214DF2092082
:10462000FDF7B5FD00214DF20A20FDF7B0FD812117
:104630004DF20B20FDF7ABFD00214DF20C20FDF7F4
:10464000A6FDA6214DF20D20FDF7A1FD00214DF2A2
:104650000E20FDF79CFDE5214DF20F20FDF797FDA3
:1046600001214DF21020FDF792FD13214DF2112092
:10467000FDF78DFD01214DF21220FDF788FD54213B
:104680004DF21320FDF783FD01214DF21420FDF7BB
:104690007EFD82214DF21520FDF779FD01214DF2BD
:1046A0001620FDF774FDCA214DF21720FDF76FFDAE
:1046B00002214DF21820FDF76AFD00214DF219206C
:1046C000FDF765FD02214DF21A20FDF760FD012185
:1046D0004DF21B20FDF75BFD02214DF21C20FDF782
:1046E00056FD34214DF21D20FDF751FD02214DF202
:1046F0001E20FDF74CFD67214DF21F20FDF747FD01
:1047000002214DF22020FDF742FD84214DF22120AF
:10471000FDF73DFD02214DF22220FDF738FDA421D9
:104720004DF22320FDF733FD02214DF22420FDF749
:104730002EFDB7214DF22520FDF729FD02214DF276
:104740002620FDF724FDCF214DF22720FDF71FFD88
:1047500002214DF22820FDF71AFDDE214DF229201D
:10476000FDF715FD02214DF22A20FDF710FDF22183
:104770004DF22B20FDF70BFD02214DF22C20FDF711
:1047800006FDFE214DF22D20FDF701FD03214DF226
:104790002E20FDF7FCFC10214DF22F20FDF7F7FC39
:1047A00003214DF23020FDF7F2FC33214DF2312090
:1047B000FDF7EDFC03214DF23220FDF7E8FC6D2101
:1047C0004DF23320FDF7E3FC00214FF45340FDF799
:1047D000DEFC33214DF20130FDF7D9FC00214DF212
:1047E0000230FDF7D4FC34214DF20330FDF7CFFC4D
:1047F00000214DF20430FDF7CAFC3A214DF205309C
:10480000FDF7C5FC00214DF20630FDF7C0FC4A2142
:104810004DF20730FDF7BBFC00214DF20830FDF7EB
:10482000B6FC5C214DF20930FDF7B1FC00214DF2E0
:104830000A30FDF7ACFC81214DF20B30FDF7A7FCEF
:1048400000214DF20C30FDF7A2FCA6214DF20D30F7
:10485000FDF79DFC00214DF20E30FDF798FCE5219F
:104860004DF20F30FDF793FC01214DF21030FDF7B2
:104870008EFC13214DF21130FDF789FC01214DF220
:104880001230FDF784FC54214DF21330FDF77FFC0C
:1048900001214DF21430FDF77AFC82214DF21530E2
:1048A000FDF775FC01214DF21630FDF770FCCA21B1
:1048B0004DF21730FDF76BFC02214DF21830FDF779
:1048C00066FC00214DF21930FDF761FC02214DF22A
:1048D0001A30FDF75CFC01214DF21B30FDF757FC4F
:1048E00002214DF21C30FDF752FC34214DF21D30F7
:1048F000FDF74DFC02214DF21E30FDF748FC67210B
:104900004DF21F30FDF743FC02214DF22030FDF740
:104910003EFC84214DF22130FDF739FC02214DF29D
:104920002230FDF734FCA4214DF22330FDF72FFC9B
:1049300002214DF22430FDF72AFCB7214DF225303B
:10494000FDF725FC02214DF22630FDF720FCCF219A
:104950004DF22730FDF71BFC02214DF22830FDF708
:1049600016FCDE214DF22930FDF711FC02214DF23B
:104970002A30FDF70CFCF2214DF22B30FDF707FC3D
:1049800002214DF22C30FDF702FCFE214DF22D30BC
:10499000FDF7FDFB03214DF22E30FDF7F8FB102152
:1049A0004DF22F30FDF7F3FB03214DF23030FDF7D0
:1049B000EEFB33214DF23130FDF7E9FB03214DF2DF
:1049C0003230FDF7E4FB6D214DF23330FDF7DFFBB4
:1049D00000214FF45440FDF7DAFB33214DF2014042
:1049E000FDF7D5FB00214DF20240FDF7D0FB34214D
:1049F0004DF20340FDF7CBFB00214DF20440FDF7E3
:104A0000C6FB3A214DF20540FDF7C1FB00214DF2F6
:104A10000640FDF7BCFB4A214DF20740FDF7B7FB0E
:104A200000214DF20840FDF7B2FB5C214DF2094038
:104A3000FDF7ADFB00214DF20A40FDF7A8FB8121F7
:104A40004DF20B40FDF7A3FB00214DF20C40FDF7AA
:104A50009EFBA6214DF20D40FDF799FB00214DF282
:104A60000E40FDF794FBE5214DF20F40FDF78FFB63
:104A700001214DF21040FDF78AFB13214DF2114048
:104A8000FDF785FB01214DF21240FDF780FB54211B
:104A90004DF21340FDF77BFB01214DF21440FDF771
:104AA00076FB82214DF21540FDF771FB01214DF29D
:104AB0001640FDF76CFBCA214DF21740FDF767FB6E
:104AC00002214DF21840FDF762FB00214DF2194022
:104AD000FDF75DFB02214DF21A40FDF758FB012165
:104AE0004DF21B4000E005E3FDF751FB02214DF2C2
:104AF0001C40FDF74CFB34214DF21D40FDF747FBF8
:104B000002214DF21E40FDF742FB67214DF21F408E
:104B1000FDF73DFB02214DF22040FDF738FB8421DB
:104B20004DF22140FDF733FB02214DF22240FDF70B
:104B30002EFBA4214DF22340FDF729FB02214DF26B
:104B40002440FDF724FBB7214DF22540FDF71FFB64
:104B500002214DF22640FDF71AFBCF214DF22740EE
:104B6000FDF715FB02214DF22840FDF710FBDE2179
:104B70004DF22940FDF70BFB02214DF22A40FDF7D3
:104B800006FBF2214DF22B40FDF701FB02214DF215
:104B90002C40FDF7FCFAFE214DF22D40FDF7F7FA0F
:104BA00003214DF22E40FDF7F2FA10214DF22F4075
:104BB000FDF7EDFA03214DF23040FDF7E8FA33211D
:104BC0004DF23140FDF7E3FA03214DF23240FDF79B
:104BD000DEFA6D214DF23340FDF7D9FA00214FF492
:104BE0005540FDF7D4FA33214DF20150FDF7CFFACD
:104BF00000214DF20250FDF7CAFA34214DF2035064
:104C0000FDF7C5FA00214DF20450FDF7C0FA3A2134
:104C10004DF20550FDF7BBFA00214DF20650FDF7AD
:104C2000B6FA4A214DF20750FDF7B1FA00214DF2D4
:104C30000850FDF7ACFA5C214DF20950FDF7A7FAD8
:104C400000214DF20A50FDF7A2FA81214DF20B50DE
:104C5000FDF79DFA00214DF20C50FDF798FAA621C0
:104C60004DF20D50FDF793FA00214DF20E50FDF775
:104C70008EFAE5214DF20F50FDF789FA01214DF230
:104C80001050FDF784FA13214DF21150FDF77FFA11
:104C900001214DF21250FDF77AFA54214DF21350D2
:104CA000FDF775FA01214DF21450FDF770FA8221DB
:104CB0004DF21550FDF76BFA01214DF21650FDF73C
:104CC00066FACA214DF21750FDF761FA02214DF242
:104CD0001850FDF75CFA00214DF21950FDF757FA14
:104CE00002214DF21A50FDF752FA01214DF21B50EC
:104CF000FDF74DFA02214DF21C50FDF748FA342120
:104D00004DF21D50FDF743FA02214DF21E50FDF702
:104D10003EFA67214DF21F50FDF739FA02214DF29C
:104D20002050FDF734FA84214DF22150FDF72FFA7F
:104D300002214DF22250FDF72AFAA4214DF2235010
:104D4000FDF725FA02214DF22450FDF720FAB72194
:104D50004DF22550FDF71BFA02214DF22650FDF7CA
:104D600016FACF214DF22750FDF711FA02214DF22C
:104D70002850FDF70CFADE214DF22950FDF707FA15
:104D800002214DF22A50FDF702FAF2214DF22B508A
:104D9000FDF7FDF902214DF22C50FDF7F8F9FE2147
:104DA0004DF22D50FDF7F3F903214DF22E50FDF792
:104DB000EEF910214DF22F50FDF7E9F903214DF2E4
:104DC0003050FDF7E4F933214DF23150FDF7DFF9B2
:104DD00003214DF23250FDF7DAF96D214DF23350D7
:104DE000FDF7D5F900214FF45640FDF7D0F93321F6
:104DF0004DF20160FDF7CBF900214DF20260FDF7A5
:104E0000C6F934214DF20360FDF7C1F900214DF2DE
:104E10000460FDF7BCF93A214DF20560FDF7B7F9E2
:104E200000214DF20660FDF7B2F94A214DF207600C
:104E3000FDF7ADF900214DF20860FDF7A8F95C21FE
:104E40004DF20960FDF7A3F900214DF20A60FDF76C
:104E50009EF981214DF20B60FDF799F900214DF289
:104E60000C60FDF794F9A6214DF20D60FDF78FF966
:104E700000214DF20E60FDF78AF9E5214DF20F6039
:104E8000FDF785F901214DF21060FDF780F913213E
:104E90004DF21160FDF77BF901214DF21260FDF733
:104EA00076F954214DF21360FDF771F901214DF2AD
:104EB0001460FDF76CF982214DF21560FDF767F97A
:104EC00001214DF21660FDF762F9CA214DF217601B
:104ED000FDF75DF902214DF21860FDF758F9002148
:104EE0004DF21960FDF753F902214DF21A60FDF7FA
:104EF0004EF901214DF21B60FDF749F902214DF2F7
:104F00001C60FDF744F934214DF21D60FDF73FF9B7
:104F100002214DF21E60FDF73AF967214DF21F6044
:104F2000FDF735F902214DF22060FDF730F98421BB
:104F30004DF22160FDF72BF902214DF22260FDF7C1
:104F400026F9A4214DF22360FDF721F902214DF24B
:104F50002460FDF71CF9B7214DF22560FDF717F924
:104F600002214DF22660FDF712F9CF214DF22760A4
:104F7000FDF70DF902214DF22860FDF708F9DE2159
:104F80004DF22960FDF703F902214DF22A60FDF789
:104F9000FEF8F2214DF22B60FDF7F9F802214DF2F7
:104FA0002C60FDF7F4F8FE214DF22D60FDF7EFF8CF
:104FB00003214DF22E60FDF7EAF810214DF22F602B
:104FC000FDF7E5F803214DF23060FDF7E0F83321FD
:104FD0004DF23160FDF7DBF803214DF23260FDF751
:104FE000D6F86D214DF23360FDF7D1F855214FF41D
:104FF0007040FDF7CCF8AA214FF20100FDF7C7F889
:1050000052214FF20200FDF7C2F808214FF20300CF
:10501000FDF7BDF800214FF20400FDF7B8F8CC21F0
:105020004FF43140FDF7B3F800214BF20110FDF7CA
:10503000AEF805214FF43640FDF7A9F870214FF482
:105040003740FDF7A4F870214BF20170FDF79FF88F
:1050500001214FF43840FDF79AF803214BF6010087
:10506000FDF795F803214BF60200FDF790F80321B8
:105070004BF60300FDF78BF802214FF43C40FDF79F
:1050800086F800214BF60140FDF781F800214BF630
:105090000240FDF77CF8D0214FF44940FDF777F846
:1050A00002214CF60110FDF772F850214CF6021067
:1050B000FDF76DF850214CF60310FDF768F850210C
:1050C0004CF60410FDF763F800214FF45450FDF73F
:1050D0005EF855214FF46850FDF759F84FF48850A9
:1050E000FDF73AF8782001F051FF4FF42450FDF716
:1050F00033F8BCE0FE48808841F663118842F8D15D
:10510000E220FDF729F81D20FDF72FF80220FDF71A
:105110002CF80420FDF729F8642001F037FFE02087
:10512000FDF71AF80120FDF720F80A2001F076FFBC
:10513000E020FDF711F80320FDF717F80C2001F02F
:105140006DFF0120FDF708F80A2001F067FFE62057
:10515000FDF702F82F20FDF708F8FF20FDF705F80E
:10516000FF20FDF702F8B020FCF7F6FF2020FCF747
:10517000FCFF0020FCF7F9FF0120FCF7F6FF40F2EE
:105180003F10FCF7F2FF0020FCF7EFFFEF20FCF7E9
:10519000ECFF0020FCF7E9FFB420FCF7DDFF022064
:1051A000FCF7E3FF40F23F20FCF7DFFF0020FCF7B5
:1051B000DCFF2E20FCF7D9FF0020FCF7D6FF0020F3
:1051C000FCF7D3FF0020FCF7D0FF0020FCF7CDFF59
:1051D000B620FCF7C1FF0120FCF7C7FF4FF48E702B
:1051E000FCF7C3FF0020FCF7C0FF1720FCF7BDFF52
:1051F0001520FCF7BAFF0020FCF7B7FF0020FCF7F2
:10520000B4FFF020FCF7A8FF0320FCF7AEFF292035
:10521000FCF7A2FFD020FCF79FFF0020FCF7A5FFC2
:10522000BE20FCF799FF0520FCF79FFFFE20FCF74E
:105230009CFF0120FCF799FF0020FCF796FF00205F
:10524000FCF793FF0020FCF790FFB820FCF784FFE9
:105250000320FCF78AFF0120FCF787FFBA20FCF748
:105260007BFF0120FCF781FF6420FDF750FA01204D
:10527000FDF779FA01209F4908604FF6FF70FDF7AE
:10528000C7FB21B000BD2DE9F04F05460E4617467D
:105290009846DDF824A04FF0000B781B401C1FFA45
:1052A00080FB344614E021462846FCF79FFFFCF7BC
:1052B00080FF4FF0000907E04FF0D840A0F880A031
:1052C00009F101001FFA80F9D945F5DB601C84B2B1
:1052D0004445E8DDBDE8F08F2DE9F84F07460D465F
:1052E00090469946DDF828B0A8EB0700401C1FFA4D
:1052F00080FAA9EB0500401C80B20090002414E065
:10530000281981B23846FCF771FFFCF752FF0026DE
:1053100007E004FB0A603BF8100077490880701C26
:1053200086B25645F5DB601C84B200988442E7DB08
:10533000BDE8F88F2DE9FF4F84B081468A460020F2
:10534000039002900698A0EB09050798A0EB0A06C7
:10535000CDF80490CDF800A0002D01DD012705E077
:105360000DB9002702E04FF0FF376D42002E02DD3D
:105370004FF0010806E016B94FF0000802E04FF0C8
:10538000FF387642B54201DD2C4600E034464FF04E
:10539000000B21E0009A91B2019A90B2FDF732F928
:1053A0000398284403900298304402900398A04246
:1053B00005DD0398001B0390019838440190029882
:1053C000A04205DD0298001B029000984044009026
:1053D0000BF101001FFA80FB601C8345DADD08B089
:1053E000BDE8F08FF0B504460D4616461F462B4625
:1053F000324629462046FFF79DFF3B462246294676
:105400002046FFF797FF3B46324639462046FFF7D6
:1054100091FF3B46324629463046FFF78BFFF0BDF1
:105420002DE9F04306460F469046002445460320EA
:10543000A0EB48093CE07A1B91B2321990B2FDF71B
:10544000E1F83A1B91B2721990B2FDF7DBF83A1904
:1054500091B2721990B2FDF7D5F87A1991B232195A
:1054600090B2FDF7CFF87A1991B2321B90B2FDF7E6
:10547000C9F83A1991B2721B90B2FDF7C3F87A1BC2
:1054800091B2321B90B2FDF7BDF83A1B91B2721B7C
:1054900090B2FDF7B7F8641CB9F1000F03DAA00071
:1054A000801D814404E0601B80000A3081446D1E31
:1054B000AC42C0DDBDE8F0832DE9F84F80460E46D2
:1054C00017461C46B3462046E31704EB5373DB1024
:1054D00021464FEAE47C04EB5C7C4FEAEC0CA4EB45
:1054E000CC0CBCF1000F09D04FF0010C08E000001B
:1054F000780D0020BC8240428000006C4FF0000C10
:105500006344224604EBD27C4FEA6C0C03FB0CF3A1
:10551000DBB20093A7F12000C7B2002556E00C2CA7
:1055200007D107EB4700FE4901EB800010F805901A
:1055300013E0102C05D1FB4800EB071010F8059084
:105540000BE0182C07D107EBC700F74901EB8000EF
:1055500010F8059001E0BDE8F88F4FF0000A2FE049
:1055600009F0800030B1F148028831464046FDF72D
:1055700057F807E00A9828B9ED48028831464046B6
:10558000FDF74EF84FEA49604FEA1069701C86B289
:10559000E8484088B04200DCDDE7A6EB0B00A04203
:1055A0000AD15E4608F101001FFA80F8E148008840
:1055B000404500DCCFE706E00AF1010000F0FF0AF9
:1055C000BAF1080FCCDB00BF681CC5B20098854259
:1055D000A5DB00BFBFE710B50246012000E0504345
:1055E0000B1EA1F10104E1B2F9D110BD2DE9FF4F6D
:1055F00081B0074691461E460E9D4FF0000A0024DA
:1056000039E0301B401EC1B20A20FFF7E4FFB9FBAE
:10561000F0F00A21B0FBF1F201FB1208BAF1000F21
:1056200016D1701EA04213DDB8F1000F0ED100207C
:10563000AB4605EBDB71491001FB0471009088B2A9
:105640002B4620220299FFF737FF12E04FF0010AA4
:105650000020AB4605EBDB71491001FB04710090A3
:1056600088B208F13001CAB22B460299FFF724FF35
:1056700000BF601CC4B2B442C3DB05B0BDE8F08F0C
:105680002DE9FF4F82B0064692461F46DDE90F48DE
:105690000020019000254DE0781B401EC1B20A2079
:1056A000FFF799FFBAFBF0F00A21B0FBF1F201FB22
:1056B0001209019850BB781EA84227DDB9F1000FEE
:1056C00022D108F0800078B108F00100A34604EB75
:1056D000DB71491001FB0561009088B2234630223E
:1056E0000399FFF7E9FE0EE008F00100A34604EB82
:1056F000DB71491001FB0561009088B2234620222E
:105700000399FFF7D9FE13E00120019008F0010092
:10571000A34604EBDB71491001FB0561009088B2E0
:1057200009F13001CAB223460399FFF7C5FE00BF55
:10573000681CC5B2BD42AFDB06B0BDE8F08F2DE9F5
:10574000FF5F2DED020B2DED0E8BA4B0B0EE408A65
:10575000F0EE608A429D0026B146002023909FED26
:10576000760B53EC102B51EC180B03F0C5FC2ED22A
:10577000012651EC180B81F0004103F091FC074623
:1057800088460A203699FFF726FF029003F042FC74
:1057900041EC1A0B3846414603F05DFC9FED680B67
:1057A00053EC102B03F044FB41EC1C0B51EC180B99
:1057B00081F0004153EC1C2B03F034FB53EC1A2B0B
:1057C00003F036FB03F06CFC82468B4624E051EC80
:1057D000180B03F065FC074688460A203699FFF748
:1057E000FAFE029003F016FC41EC1A0B38464146D3
:1057F00003F031FC9FED520B53EC102B03F018FB20
:1058000053EC182B03F011FB53EC1A2B03F010FB95
:1058100003F046FC82468B4600BF0A22002338462E
:10582000414603F01BFA4846411C01F0FF0913A949
:105830000A540A2200233846414603F00FFA07466D
:105840008846002187EA010088EA01010843E4D183
:10585000239015E00A2200235046594603F0FEF932
:10586000D1B203AA239811540A2200235046594664
:1058700003F0F4F982468B462398401CC0B2239073
:10588000369923988842E5DB3EB100202B462D2235
:105890000090DDE93401FFF70FFE344672E009EBBA
:1058A0000600A04216DD0020A9F10101A31BC91AC0
:1058B00013AB0090595C3031CAB205EBD5714B1077
:1058C0000295349903FB041188B22B463599FFF7F2
:1058D000F3FD55E009EB0600A0420FD1002005EBD7
:1058E000D5714A1002950090349902FB041188B2D8
:1058F0002B462E223599FFF7DFFD41E023984844DF
:10590000401C3044A0422CDD0020009023994944E3
:10591000A31BC91A03AB595C3031CAB214E00000B2
:1059200020B1000894B5000884BB000846000020A0
:1059300048000020780D002000000000000000005A
:10594000000000000000F03F05EBD5714B10029500
:10595000349903FB041188B22B463599FFF7ACFD4F
:105960000EE0002005EBD5714A10029500903499A5
:1059700002FB041188B22B4620223599FFF79CFDCB
:10598000601CC4B23798844289DB24B0BDEC0E8B16
:1059900006B0BDE8F09F2DE9FF5F2DED020B2DED68
:1059A0000E8BA4B0B0EE408AF0EE608A429D0026D5
:1059B000B146002023901FED200B53EC102B51EC2F
:1059C000180B03F099FB2ED2012651EC180B81F035
:1059D000004103F065FB074688460A203699FFF729
:1059E000FAFD029003F016FB41EC1A0B38464146D3
:1059F00003F031FB1FED2E0B53EC102B03F018FAC4
:105A000041EC1C0B51EC180B81F0004153EC1C2BAA
:105A100003F008FA53EC1A2B03F00AFA03F040FBE8
:105A200082468B4624E051EC180B03F039FB074605
:105A300088460A203699FFF7CEFD029003F0EAFA75
:105A400041EC1A0B3846414603F005FB1FED440BB1
:105A500053EC102B03F0ECF953EC182B03F0E5F9A1
:105A600053EC1A2B03F0E4F903F01AFB82468B4641
:105A700000BF0A2200233846414603F0EFF84846AB
:105A8000411C01F0FF0913A90A540A2200233846D9
:105A9000414603F0E3F807468846002187EA010003
:105AA00088EA01010843E4D1239015E00A2200238B
:105AB0005046594603F0D2F8D1B203AA23981154A4
:105AC0000A2200235046594603F0C8F882468B4606
:105AD0002398401CC0B22390369923988842E5DB76
